{
  "_format": "hh-sol-artifact-1",
  "contractName": "NFT",
  "sourceName": "contracts/NFT.sol",
  "abi": [
    {
      "inputs": [
        {
          "internalType": "string",
          "name": "_name",
          "type": "string"
        },
        {
          "internalType": "string",
          "name": "_symbol",
          "type": "string"
        }
      ],
      "stateMutability": "nonpayable",
      "type": "constructor"
    },
    {
      "inputs": [
        {
          "internalType": "address",
          "name": "sender",
          "type": "address"
        },
        {
          "internalType": "uint256",
          "name": "tokenId",
          "type": "uint256"
        },
        {
          "internalType": "address",
          "name": "owner",
          "type": "address"
        }
      ],
      "name": "ERC721IncorrectOwner",
      "type": "error"
    },
    {
      "inputs": [
        {
          "internalType": "address",
          "name": "operator",
          "type": "address"
        },
        {
          "internalType": "uint256",
          "name": "tokenId",
          "type": "uint256"
        }
      ],
      "name": "ERC721InsufficientApproval",
      "type": "error"
    },
    {
      "inputs": [
        {
          "internalType": "address",
          "name": "approver",
          "type": "address"
        }
      ],
      "name": "ERC721InvalidApprover",
      "type": "error"
    },
    {
      "inputs": [
        {
          "internalType": "address",
          "name": "operator",
          "type": "address"
        }
      ],
      "name": "ERC721InvalidOperator",
      "type": "error"
    },
    {
      "inputs": [
        {
          "internalType": "address",
          "name": "owner",
          "type": "address"
        }
      ],
      "name": "ERC721InvalidOwner",
      "type": "error"
    },
    {
      "inputs": [
        {
          "internalType": "address",
          "name": "receiver",
          "type": "address"
        }
      ],
      "name": "ERC721InvalidReceiver",
      "type": "error"
    },
    {
      "inputs": [
        {
          "internalType": "address",
          "name": "sender",
          "type": "address"
        }
      ],
      "name": "ERC721InvalidSender",
      "type": "error"
    },
    {
      "inputs": [
        {
          "internalType": "uint256",
          "name": "tokenId",
          "type": "uint256"
        }
      ],
      "name": "ERC721NonexistentToken",
      "type": "error"
    },
    {
      "inputs": [
        {
          "internalType": "address",
          "name": "owner",
          "type": "address"
        }
      ],
      "name": "OwnableInvalidOwner",
      "type": "error"
    },
    {
      "inputs": [
        {
          "internalType": "address",
          "name": "account",
          "type": "address"
        }
      ],
      "name": "OwnableUnauthorizedAccount",
      "type": "error"
    },
    {
      "anonymous": false,
      "inputs": [
        {
          "indexed": true,
          "internalType": "address",
          "name": "owner",
          "type": "address"
        },
        {
          "indexed": true,
          "internalType": "address",
          "name": "approved",
          "type": "address"
        },
        {
          "indexed": true,
          "internalType": "uint256",
          "name": "tokenId",
          "type": "uint256"
        }
      ],
      "name": "Approval",
      "type": "event"
    },
    {
      "anonymous": false,
      "inputs": [
        {
          "indexed": true,
          "internalType": "address",
          "name": "owner",
          "type": "address"
        },
        {
          "indexed": true,
          "internalType": "address",
          "name": "operator",
          "type": "address"
        },
        {
          "indexed": false,
          "internalType": "bool",
          "name": "approved",
          "type": "bool"
        }
      ],
      "name": "ApprovalForAll",
      "type": "event"
    },
    {
      "anonymous": false,
      "inputs": [
        {
          "indexed": true,
          "internalType": "address",
          "name": "previousOwner",
          "type": "address"
        },
        {
          "indexed": true,
          "internalType": "address",
          "name": "newOwner",
          "type": "address"
        }
      ],
      "name": "OwnershipTransferred",
      "type": "event"
    },
    {
      "anonymous": false,
      "inputs": [
        {
          "indexed": true,
          "internalType": "address",
          "name": "from",
          "type": "address"
        },
        {
          "indexed": true,
          "internalType": "address",
          "name": "to",
          "type": "address"
        },
        {
          "indexed": true,
          "internalType": "uint256",
          "name": "tokenId",
          "type": "uint256"
        }
      ],
      "name": "Transfer",
      "type": "event"
    },
    {
      "inputs": [
        {
          "internalType": "address",
          "name": "to",
          "type": "address"
        },
        {
          "internalType": "uint256",
          "name": "tokenId",
          "type": "uint256"
        }
      ],
      "name": "approve",
      "outputs": [],
      "stateMutability": "nonpayable",
      "type": "function"
    },
    {
      "inputs": [
        {
          "internalType": "address",
          "name": "owner",
          "type": "address"
        }
      ],
      "name": "balanceOf",
      "outputs": [
        {
          "internalType": "uint256",
          "name": "",
          "type": "uint256"
        }
      ],
      "stateMutability": "view",
      "type": "function"
    },
    {
      "inputs": [
        {
          "internalType": "uint256",
          "name": "tokenId",
          "type": "uint256"
        }
      ],
      "name": "getApproved",
      "outputs": [
        {
          "internalType": "address",
          "name": "",
          "type": "address"
        }
      ],
      "stateMutability": "view",
      "type": "function"
    },
    {
      "inputs": [
        {
          "internalType": "address",
          "name": "owner",
          "type": "address"
        },
        {
          "internalType": "address",
          "name": "operator",
          "type": "address"
        }
      ],
      "name": "isApprovedForAll",
      "outputs": [
        {
          "internalType": "bool",
          "name": "",
          "type": "bool"
        }
      ],
      "stateMutability": "view",
      "type": "function"
    },
    {
      "inputs": [
        {
          "internalType": "address",
          "name": "_to",
          "type": "address"
        }
      ],
      "name": "mint",
      "outputs": [
        {
          "internalType": "bool",
          "name": "",
          "type": "bool"
        }
      ],
      "stateMutability": "nonpayable",
      "type": "function"
    },
    {
      "inputs": [],
      "name": "name",
      "outputs": [
        {
          "internalType": "string",
          "name": "",
          "type": "string"
        }
      ],
      "stateMutability": "view",
      "type": "function"
    },
    {
      "inputs": [],
      "name": "owner",
      "outputs": [
        {
          "internalType": "address",
          "name": "",
          "type": "address"
        }
      ],
      "stateMutability": "view",
      "type": "function"
    },
    {
      "inputs": [
        {
          "internalType": "uint256",
          "name": "tokenId",
          "type": "uint256"
        }
      ],
      "name": "ownerOf",
      "outputs": [
        {
          "internalType": "address",
          "name": "",
          "type": "address"
        }
      ],
      "stateMutability": "view",
      "type": "function"
    },
    {
      "inputs": [],
      "name": "renounceOwnership",
      "outputs": [],
      "stateMutability": "nonpayable",
      "type": "function"
    },
    {
      "inputs": [
        {
          "internalType": "address",
          "name": "from",
          "type": "address"
        },
        {
          "internalType": "address",
          "name": "to",
          "type": "address"
        },
        {
          "internalType": "uint256",
          "name": "tokenId",
          "type": "uint256"
        }
      ],
      "name": "safeTransferFrom",
      "outputs": [],
      "stateMutability": "nonpayable",
      "type": "function"
    },
    {
      "inputs": [
        {
          "internalType": "address",
          "name": "from",
          "type": "address"
        },
        {
          "internalType": "address",
          "name": "to",
          "type": "address"
        },
        {
          "internalType": "uint256",
          "name": "tokenId",
          "type": "uint256"
        },
        {
          "internalType": "bytes",
          "name": "data",
          "type": "bytes"
        }
      ],
      "name": "safeTransferFrom",
      "outputs": [],
      "stateMutability": "nonpayable",
      "type": "function"
    },
    {
      "inputs": [
        {
          "internalType": "address",
          "name": "operator",
          "type": "address"
        },
        {
          "internalType": "bool",
          "name": "approved",
          "type": "bool"
        }
      ],
      "name": "setApprovalForAll",
      "outputs": [],
      "stateMutability": "nonpayable",
      "type": "function"
    },
    {
      "inputs": [
        {
          "internalType": "bytes4",
          "name": "interfaceId",
          "type": "bytes4"
        }
      ],
      "name": "supportsInterface",
      "outputs": [
        {
          "internalType": "bool",
          "name": "",
          "type": "bool"
        }
      ],
      "stateMutability": "view",
      "type": "function"
    },
    {
      "inputs": [],
      "name": "symbol",
      "outputs": [
        {
          "internalType": "string",
          "name": "",
          "type": "string"
        }
      ],
      "stateMutability": "view",
      "type": "function"
    },
    {
      "inputs": [
        {
          "internalType": "uint256",
          "name": "tokenId",
          "type": "uint256"
        }
      ],
      "name": "tokenURI",
      "outputs": [
        {
          "internalType": "string",
          "name": "",
          "type": "string"
        }
      ],
      "stateMutability": "view",
      "type": "function"
    },
    {
      "inputs": [
        {
          "internalType": "address",
          "name": "from",
          "type": "address"
        },
        {
          "internalType": "address",
          "name": "to",
          "type": "address"
        },
        {
          "internalType": "uint256",
          "name": "tokenId",
          "type": "uint256"
        }
      ],
      "name": "transferFrom",
      "outputs": [],
      "stateMutability": "nonpayable",
      "type": "function"
    },
    {
      "inputs": [
        {
          "internalType": "address",
          "name": "newOwner",
          "type": "address"
        }
      ],
      "name": "transferOwnership",
      "outputs": [],
      "stateMutability": "nonpayable",
      "type": "function"
    }
  ],
  "bytecode": "0x608060405234801561001057600080fd5b50604051613b38380380613b3883398181016040528101906100329190610e74565b3382828160009081610044919061110d565b508060019081610054919061110d565b505050600073ffffffffffffffffffffffffffffffffffffffff168173ffffffffffffffffffffffffffffffffffffffff16036100c95760006040517f1e4fbdf70000000000000000000000000000000000000000000000000000000081526004016100c09190611220565b60405180910390fd5b6100d8816100f060201b60201c565b506100e8336101b660201b60201c565b505050611417565b6000600660009054906101000a900473ffffffffffffffffffffffffffffffffffffffff16905081600660006101000a81548173ffffffffffffffffffffffffffffffffffffffff021916908373ffffffffffffffffffffffffffffffffffffffff1602179055508173ffffffffffffffffffffffffffffffffffffffff168173ffffffffffffffffffffffffffffffffffffffff167f8be0079c531659141344cd1fd0a4f28419497f9722a3daafe3b4186f6b6457e060405160405180910390a35050565b60006101c66101fa60201b60201c565b600060016007546101d7919061126a565b90506101e9838261029360201b60201c565b806007819055506001915050919050565b6102086102b760201b60201c565b73ffffffffffffffffffffffffffffffffffffffff1661022c6102bf60201b60201c565b73ffffffffffffffffffffffffffffffffffffffff1614610291576102556102b760201b60201c565b6040517f118cdaa70000000000000000000000000000000000000000000000000000000081526004016102889190611220565b60405180910390fd5b565b6102b38282604051806020016040528060008152506102e960201b60201c565b5050565b600033905090565b6000600660009054906101000a900473ffffffffffffffffffffffffffffffffffffffff16905090565b6102f9838361031f60201b60201c565b61031a61030a6102b760201b60201c565b600085858561041e60201b60201c565b505050565b600073ffffffffffffffffffffffffffffffffffffffff168273ffffffffffffffffffffffffffffffffffffffff16036103915760006040517f64a0ae920000000000000000000000000000000000000000000000000000000081526004016103889190611220565b60405180910390fd5b60006103a5838360006105cf60201b60201c565b9050600073ffffffffffffffffffffffffffffffffffffffff168173ffffffffffffffffffffffffffffffffffffffff16146104195760006040517f73c6ac6e0000000000000000000000000000000000000000000000000000000081526004016104109190611220565b60405180910390fd5b505050565b60008373ffffffffffffffffffffffffffffffffffffffff163b11156105c8578273ffffffffffffffffffffffffffffffffffffffff1663150b7a02868685856040518563ffffffff1660e01b815260040161047d9493929190611302565b6020604051808303816000875af19250505080156104b957506040513d601f19601f820116820180604052508101906104b691906113a6565b60015b61053d573d80600081146104e9576040519150601f19603f3d011682016040523d82523d6000602084013e6104ee565b606091505b50600081510361053557836040517f64a0ae9200000000000000000000000000000000000000000000000000000000815260040161052c9190611220565b60405180910390fd5b805181602001fd5b63150b7a0260e01b7bffffffffffffffffffffffffffffffffffffffffffffffffffffffff1916817bffffffffffffffffffffffffffffffffffffffffffffffffffffffff1916146105c657836040517f64a0ae920000000000000000000000000000000000000000000000000000000081526004016105bd9190611220565b60405180910390fd5b505b5050505050565b6000806105e1846107fb60201b60201c565b9050600073ffffffffffffffffffffffffffffffffffffffff168373ffffffffffffffffffffffffffffffffffffffff16146106295761062881848661083860201b60201c565b5b600073ffffffffffffffffffffffffffffffffffffffff168173ffffffffffffffffffffffffffffffffffffffff16146106c05761067160008560008061090260201b60201c565b6001600360008373ffffffffffffffffffffffffffffffffffffffff1673ffffffffffffffffffffffffffffffffffffffff168152602001908152602001600020600082825403925050819055505b600073ffffffffffffffffffffffffffffffffffffffff168573ffffffffffffffffffffffffffffffffffffffff1614610743576001600360008773ffffffffffffffffffffffffffffffffffffffff1673ffffffffffffffffffffffffffffffffffffffff168152602001908152602001600020600082825401925050819055505b846002600086815260200190815260200160002060006101000a81548173ffffffffffffffffffffffffffffffffffffffff021916908373ffffffffffffffffffffffffffffffffffffffff160217905550838573ffffffffffffffffffffffffffffffffffffffff168273ffffffffffffffffffffffffffffffffffffffff167fddf252ad1be2c89b69c2b068fc378daa952ba7f163c4a11628f55a4df523b3ef60405160405180910390a4809150509392505050565b60006002600083815260200190815260200160002060009054906101000a900473ffffffffffffffffffffffffffffffffffffffff169050919050565b610849838383610ad360201b60201c565b6108fd57600073ffffffffffffffffffffffffffffffffffffffff168373ffffffffffffffffffffffffffffffffffffffff16036108be57806040517f7e2732890000000000000000000000000000000000000000000000000000000081526004016108b591906113d3565b60405180910390fd5b81816040517f177e802f0000000000000000000000000000000000000000000000000000000081526004016108f49291906113ee565b60405180910390fd5b505050565b808061093b5750600073ffffffffffffffffffffffffffffffffffffffff168273ffffffffffffffffffffffffffffffffffffffff1614155b15610a7b57600061095184610ba060201b60201c565b9050600073ffffffffffffffffffffffffffffffffffffffff168373ffffffffffffffffffffffffffffffffffffffff16141580156109bc57508273ffffffffffffffffffffffffffffffffffffffff168173ffffffffffffffffffffffffffffffffffffffff1614155b80156109d557506109d38184610c2e60201b60201c565b155b15610a1757826040517fa9fbf51f000000000000000000000000000000000000000000000000000000008152600401610a0e9190611220565b60405180910390fd5b8115610a7957838573ffffffffffffffffffffffffffffffffffffffff168273ffffffffffffffffffffffffffffffffffffffff167f8c5be1e5ebec7d5bd14f71427d1e84f3dd0314c0f7b2291e5b200ac8c7c3b92560405160405180910390a45b505b836004600085815260200190815260200160002060006101000a81548173ffffffffffffffffffffffffffffffffffffffff021916908373ffffffffffffffffffffffffffffffffffffffff16021790555050505050565b60008073ffffffffffffffffffffffffffffffffffffffff168373ffffffffffffffffffffffffffffffffffffffff1614158015610b9757508273ffffffffffffffffffffffffffffffffffffffff168473ffffffffffffffffffffffffffffffffffffffff161480610b525750610b518484610c2e60201b60201c565b5b80610b9657508273ffffffffffffffffffffffffffffffffffffffff16610b7e83610cc260201b60201c565b73ffffffffffffffffffffffffffffffffffffffff16145b5b90509392505050565b600080610bb2836107fb60201b60201c565b9050600073ffffffffffffffffffffffffffffffffffffffff168173ffffffffffffffffffffffffffffffffffffffff1603610c2557826040517f7e273289000000000000000000000000000000000000000000000000000000008152600401610c1c91906113d3565b60405180910390fd5b80915050919050565b6000600560008473ffffffffffffffffffffffffffffffffffffffff1673ffffffffffffffffffffffffffffffffffffffff16815260200190815260200160002060008373ffffffffffffffffffffffffffffffffffffffff1673ffffffffffffffffffffffffffffffffffffffff16815260200190815260200160002060009054906101000a900460ff16905092915050565b60006004600083815260200190815260200160002060009054906101000a900473ffffffffffffffffffffffffffffffffffffffff169050919050565b6000604051905090565b600080fd5b600080fd5b600080fd5b600080fd5b6000601f19601f8301169050919050565b7f4e487b7100000000000000000000000000000000000000000000000000000000600052604160045260246000fd5b610d6682610d1d565b810181811067ffffffffffffffff82111715610d8557610d84610d2e565b5b80604052505050565b6000610d98610cff565b9050610da48282610d5d565b919050565b600067ffffffffffffffff821115610dc457610dc3610d2e565b5b610dcd82610d1d565b9050602081019050919050565b60005b83811015610df8578082015181840152602081019050610ddd565b60008484015250505050565b6000610e17610e1284610da9565b610d8e565b905082815260208101848484011115610e3357610e32610d18565b5b610e3e848285610dda565b509392505050565b600082601f830112610e5b57610e5a610d13565b5b8151610e6b848260208601610e04565b91505092915050565b60008060408385031215610e8b57610e8a610d09565b5b600083015167ffffffffffffffff811115610ea957610ea8610d0e565b5b610eb585828601610e46565b925050602083015167ffffffffffffffff811115610ed657610ed5610d0e565b5b610ee285828601610e46565b9150509250929050565b600081519050919050565b7f4e487b7100000000000000000000000000000000000000000000000000000000600052602260045260246000fd5b60006002820490506001821680610f3e57607f821691505b602082108103610f5157610f50610ef7565b5b50919050565b60008190508160005260206000209050919050565b60006020601f8301049050919050565b600082821b905092915050565b600060088302610fb97fffffffffffffffffffffffffffffffffffffffffffffffffffffffffffffffff82610f7c565b610fc38683610f7c565b95508019841693508086168417925050509392505050565b6000819050919050565b6000819050919050565b600061100a61100561100084610fdb565b610fe5565b610fdb565b9050919050565b6000819050919050565b61102483610fef565b61103861103082611011565b848454610f89565b825550505050565b600090565b61104d611040565b61105881848461101b565b505050565b5b8181101561107c57611071600082611045565b60018101905061105e565b5050565b601f8211156110c15761109281610f57565b61109b84610f6c565b810160208510156110aa578190505b6110be6110b685610f6c565b83018261105d565b50505b505050565b600082821c905092915050565b60006110e4600019846008026110c6565b1980831691505092915050565b60006110fd83836110d3565b9150826002028217905092915050565b61111682610eec565b67ffffffffffffffff81111561112f5761112e610d2e565b5b6111398254610f26565b611144828285611080565b600060209050601f8311600181146111775760008415611165578287015190505b61116f85826110f1565b8655506111d7565b601f19841661118586610f57565b60005b828110156111ad57848901518255600182019150602085019450602081019050611188565b868310156111ca57848901516111c6601f8916826110d3565b8355505b6001600288020188555050505b505050505050565b600073ffffffffffffffffffffffffffffffffffffffff82169050919050565b600061120a826111df565b9050919050565b61121a816111ff565b82525050565b60006020820190506112356000830184611211565b92915050565b7f4e487b7100000000000000000000000000000000000000000000000000000000600052601160045260246000fd5b600061127582610fdb565b915061128083610fdb565b92508282019050808211156112985761129761123b565b5b92915050565b6112a781610fdb565b82525050565b600081519050919050565b600082825260208201905092915050565b60006112d4826112ad565b6112de81856112b8565b93506112ee818560208601610dda565b6112f781610d1d565b840191505092915050565b60006080820190506113176000830187611211565b6113246020830186611211565b611331604083018561129e565b818103606083015261134381846112c9565b905095945050505050565b60007fffffffff0000000000000000000000000000000000000000000000000000000082169050919050565b6113838161134e565b811461138e57600080fd5b50565b6000815190506113a08161137a565b92915050565b6000602082840312156113bc576113bb610d09565b5b60006113ca84828501611391565b91505092915050565b60006020820190506113e8600083018461129e565b92915050565b60006040820190506114036000830185611211565b611410602083018461129e565b9392505050565b612712806114266000396000f3fe608060405234801561001057600080fd5b506004361061010b5760003560e01c806370a08231116100a2578063a22cb46511610071578063a22cb465146102b8578063b88d4fde146102d4578063c87b56dd146102f0578063e985e9c514610320578063f2fde38b146103505761010b565b806370a0823114610242578063715018a6146102725780638da5cb5b1461027c57806395d89b411461029a5761010b565b806323b872dd116100de57806323b872dd146101aa57806342842e0e146101c65780636352211e146101e25780636a627842146102125761010b565b806301ffc9a71461011057806306fdde0314610140578063081812fc1461015e578063095ea7b31461018e575b600080fd5b61012a60048036038101906101259190611ad6565b61036c565b6040516101379190611b1e565b60405180910390f35b61014861044e565b6040516101559190611bc9565b60405180910390f35b61017860048036038101906101739190611c21565b6104e0565b6040516101859190611c8f565b60405180910390f35b6101a860048036038101906101a39190611cd6565b6104fc565b005b6101c460048036038101906101bf9190611d16565b610512565b005b6101e060048036038101906101db9190611d16565b610614565b005b6101fc60048036038101906101f79190611c21565b610634565b6040516102099190611c8f565b60405180910390f35b61022c60048036038101906102279190611d69565b610646565b6040516102399190611b1e565b60405180910390f35b61025c60048036038101906102579190611d69565b61067e565b6040516102699190611da5565b60405180910390f35b61027a610738565b005b61028461074c565b6040516102919190611c8f565b60405180910390f35b6102a2610776565b6040516102af9190611bc9565b60405180910390f35b6102d260048036038101906102cd9190611dec565b610808565b005b6102ee60048036038101906102e99190611f61565b61081e565b005b61030a60048036038101906103059190611c21565b610843565b6040516103179190611bc9565b60405180910390f35b61033a60048036038101906103359190611fe4565b6108bb565b6040516103479190611b1e565b60405180910390f35b61036a60048036038101906103659190611d69565b61094f565b005b60007f80ac58cd000000000000000000000000000000000000000000000000000000007bffffffffffffffffffffffffffffffffffffffffffffffffffffffff1916827bffffffffffffffffffffffffffffffffffffffffffffffffffffffff1916148061043757507f5b5e139f000000000000000000000000000000000000000000000000000000007bffffffffffffffffffffffffffffffffffffffffffffffffffffffff1916827bffffffffffffffffffffffffffffffffffffffffffffffffffffffff1916145b806104475750610446826109d5565b5b9050919050565b60606000805461045d90612053565b80601f016020809104026020016040519081016040528092919081815260200182805461048990612053565b80156104d65780601f106104ab576101008083540402835291602001916104d6565b820191906000526020600020905b8154815290600101906020018083116104b957829003601f168201915b5050505050905090565b60006104eb82610a3f565b506104f582610ac7565b9050919050565b61050e8282610509610b04565b610b0c565b5050565b600073ffffffffffffffffffffffffffffffffffffffff168273ffffffffffffffffffffffffffffffffffffffff16036105845760006040517f64a0ae9200000000000000000000000000000000000000000000000000000000815260040161057b9190611c8f565b60405180910390fd5b60006105988383610593610b04565b610b1e565b90508373ffffffffffffffffffffffffffffffffffffffff168173ffffffffffffffffffffffffffffffffffffffff161461060e578382826040517f64283d7b00000000000000000000000000000000000000000000000000000000815260040161060593929190612084565b60405180910390fd5b50505050565b61062f8383836040518060200160405280600081525061081e565b505050565b600061063f82610a3f565b9050919050565b6000610650610d38565b6000600160075461066191906120ea565b905061066d8382610dbf565b806007819055506001915050919050565b60008073ffffffffffffffffffffffffffffffffffffffff168273ffffffffffffffffffffffffffffffffffffffff16036106f15760006040517f89c62b640000000000000000000000000000000000000000000000000000000081526004016106e89190611c8f565b60405180910390fd5b600360008373ffffffffffffffffffffffffffffffffffffffff1673ffffffffffffffffffffffffffffffffffffffff168152602001908152602001600020549050919050565b610740610d38565b61074a6000610ddd565b565b6000600660009054906101000a900473ffffffffffffffffffffffffffffffffffffffff16905090565b60606001805461078590612053565b80601f01602080910402602001604051908101604052809291908181526020018280546107b190612053565b80156107fe5780601f106107d3576101008083540402835291602001916107fe565b820191906000526020600020905b8154815290600101906020018083116107e157829003601f168201915b5050505050905090565b61081a610813610b04565b8383610ea3565b5050565b610829848484610512565b61083d610834610b04565b85858585611012565b50505050565b6060600061089161085261044e565b61085b856111c3565b61086b610866611291565b6112b2565b60405160200161087d93929190612348565b6040516020818303038152906040526112b2565b9050806040516020016108a49190612407565b604051602081830303815290604052915050919050565b6000600560008473ffffffffffffffffffffffffffffffffffffffff1673ffffffffffffffffffffffffffffffffffffffff16815260200190815260200160002060008373ffffffffffffffffffffffffffffffffffffffff1673ffffffffffffffffffffffffffffffffffffffff16815260200190815260200160002060009054906101000a900460ff16905092915050565b610957610d38565b600073ffffffffffffffffffffffffffffffffffffffff168173ffffffffffffffffffffffffffffffffffffffff16036109c95760006040517f1e4fbdf70000000000000000000000000000000000000000000000000000000081526004016109c09190611c8f565b60405180910390fd5b6109d281610ddd565b50565b60007f01ffc9a7000000000000000000000000000000000000000000000000000000007bffffffffffffffffffffffffffffffffffffffffffffffffffffffff1916827bffffffffffffffffffffffffffffffffffffffffffffffffffffffff1916149050919050565b600080610a4b836112df565b9050600073ffffffffffffffffffffffffffffffffffffffff168173ffffffffffffffffffffffffffffffffffffffff1603610abe57826040517f7e273289000000000000000000000000000000000000000000000000000000008152600401610ab59190611da5565b60405180910390fd5b80915050919050565b60006004600083815260200190815260200160002060009054906101000a900473ffffffffffffffffffffffffffffffffffffffff169050919050565b600033905090565b610b19838383600161131c565b505050565b600080610b2a846112df565b9050600073ffffffffffffffffffffffffffffffffffffffff168373ffffffffffffffffffffffffffffffffffffffff1614610b6c57610b6b8184866114e1565b5b600073ffffffffffffffffffffffffffffffffffffffff168173ffffffffffffffffffffffffffffffffffffffff1614610bfd57610bae60008560008061131c565b6001600360008373ffffffffffffffffffffffffffffffffffffffff1673ffffffffffffffffffffffffffffffffffffffff168152602001908152602001600020600082825403925050819055505b600073ffffffffffffffffffffffffffffffffffffffff168573ffffffffffffffffffffffffffffffffffffffff1614610c80576001600360008773ffffffffffffffffffffffffffffffffffffffff1673ffffffffffffffffffffffffffffffffffffffff168152602001908152602001600020600082825401925050819055505b846002600086815260200190815260200160002060006101000a81548173ffffffffffffffffffffffffffffffffffffffff021916908373ffffffffffffffffffffffffffffffffffffffff160217905550838573ffffffffffffffffffffffffffffffffffffffff168273ffffffffffffffffffffffffffffffffffffffff167fddf252ad1be2c89b69c2b068fc378daa952ba7f163c4a11628f55a4df523b3ef60405160405180910390a4809150509392505050565b610d40610b04565b73ffffffffffffffffffffffffffffffffffffffff16610d5e61074c565b73ffffffffffffffffffffffffffffffffffffffff1614610dbd57610d81610b04565b6040517f118cdaa7000000000000000000000000000000000000000000000000000000008152600401610db49190611c8f565b60405180910390fd5b565b610dd98282604051806020016040528060008152506115a5565b5050565b6000600660009054906101000a900473ffffffffffffffffffffffffffffffffffffffff16905081600660006101000a81548173ffffffffffffffffffffffffffffffffffffffff021916908373ffffffffffffffffffffffffffffffffffffffff1602179055508173ffffffffffffffffffffffffffffffffffffffff168173ffffffffffffffffffffffffffffffffffffffff167f8be0079c531659141344cd1fd0a4f28419497f9722a3daafe3b4186f6b6457e060405160405180910390a35050565b600073ffffffffffffffffffffffffffffffffffffffff168273ffffffffffffffffffffffffffffffffffffffff1603610f1457816040517f5b08ba18000000000000000000000000000000000000000000000000000000008152600401610f0b9190611c8f565b60405180910390fd5b80600560008573ffffffffffffffffffffffffffffffffffffffff1673ffffffffffffffffffffffffffffffffffffffff16815260200190815260200160002060008473ffffffffffffffffffffffffffffffffffffffff1673ffffffffffffffffffffffffffffffffffffffff16815260200190815260200160002060006101000a81548160ff0219169083151502179055508173ffffffffffffffffffffffffffffffffffffffff168373ffffffffffffffffffffffffffffffffffffffff167f17307eab39ab6107e8899845ad3d59bd9653f200f220920489ca2b5937696c31836040516110059190611b1e565b60405180910390a3505050565b60008373ffffffffffffffffffffffffffffffffffffffff163b11156111bc578273ffffffffffffffffffffffffffffffffffffffff1663150b7a02868685856040518563ffffffff1660e01b8152600401611071949392919061247e565b6020604051808303816000875af19250505080156110ad57506040513d601f19601f820116820180604052508101906110aa91906124df565b60015b611131573d80600081146110dd576040519150601f19603f3d011682016040523d82523d6000602084013e6110e2565b606091505b50600081510361112957836040517f64a0ae920000000000000000000000000000000000000000000000000000000081526004016111209190611c8f565b60405180910390fd5b805181602001fd5b63150b7a0260e01b7bffffffffffffffffffffffffffffffffffffffffffffffffffffffff1916817bffffffffffffffffffffffffffffffffffffffffffffffffffffffff1916146111ba57836040517f64a0ae920000000000000000000000000000000000000000000000000000000081526004016111b19190611c8f565b60405180910390fd5b505b5050505050565b6060600060016111d2846115c9565b01905060008167ffffffffffffffff8111156111f1576111f0611e36565b5b6040519080825280601f01601f1916602001820160405280156112235781602001600182028036833780820191505090505b509050600082602001820190505b600115611286578080600190039150507f3031323334353637383961626364656600000000000000000000000000000000600a86061a8153600a858161127a5761127961250c565b5b04945060008503611231575b819350505050919050565b606060405180610100016040528060c581526020016125d860c59139905090565b60606112d88260405180606001604052806040815260200161269d60409139600161171c565b9050919050565b60006002600083815260200190815260200160002060009054906101000a900473ffffffffffffffffffffffffffffffffffffffff169050919050565b80806113555750600073ffffffffffffffffffffffffffffffffffffffff168273ffffffffffffffffffffffffffffffffffffffff1614155b1561148957600061136584610a3f565b9050600073ffffffffffffffffffffffffffffffffffffffff168373ffffffffffffffffffffffffffffffffffffffff16141580156113d057508273ffffffffffffffffffffffffffffffffffffffff168173ffffffffffffffffffffffffffffffffffffffff1614155b80156113e357506113e181846108bb565b155b1561142557826040517fa9fbf51f00000000000000000000000000000000000000000000000000000000815260040161141c9190611c8f565b60405180910390fd5b811561148757838573ffffffffffffffffffffffffffffffffffffffff168273ffffffffffffffffffffffffffffffffffffffff167f8c5be1e5ebec7d5bd14f71427d1e84f3dd0314c0f7b2291e5b200ac8c7c3b92560405160405180910390a45b505b836004600085815260200190815260200160002060006101000a81548173ffffffffffffffffffffffffffffffffffffffff021916908373ffffffffffffffffffffffffffffffffffffffff16021790555050505050565b6114ec8383836118b0565b6115a057600073ffffffffffffffffffffffffffffffffffffffff168373ffffffffffffffffffffffffffffffffffffffff160361156157806040517f7e2732890000000000000000000000000000000000000000000000000000000081526004016115589190611da5565b60405180910390fd5b81816040517f177e802f00000000000000000000000000000000000000000000000000000000815260040161159792919061253b565b60405180910390fd5b505050565b6115af8383611971565b6115c46115ba610b04565b6000858585611012565b505050565b600080600090507a184f03e93ff9f4daa797ed6e38ed64bf6a1f0100000000000000008310611627577a184f03e93ff9f4daa797ed6e38ed64bf6a1f010000000000000000838161161d5761161c61250c565b5b0492506040810190505b6d04ee2d6d415b85acef81000000008310611664576d04ee2d6d415b85acef8100000000838161165a5761165961250c565b5b0492506020810190505b662386f26fc10000831061169357662386f26fc1000083816116895761168861250c565b5b0492506010810190505b6305f5e10083106116bc576305f5e10083816116b2576116b161250c565b5b0492506008810190505b61271083106116e15761271083816116d7576116d661250c565b5b0492506004810190505b6064831061170457606483816116fa576116f961250c565b5b0492506002810190505b600a8310611713576001810190505b80915050919050565b6060600084510361173e576040518060200160405280600081525090506118a9565b6000826117705760036002865160046117579190612564565b61176191906120ea565b61176b91906125a6565b611797565b60036002865161178091906120ea565b61178a91906125a6565b60046117969190612564565b5b905060008167ffffffffffffffff8111156117b5576117b4611e36565b5b6040519080825280601f01601f1916602001820160405280156117e75781602001600182028036833780820191505090505b50905060018501602082018788518901602081018051600082525b8284101561185d576003840193508351603f8160121c168701518653600186019550603f81600c1c168701518653600186019550603f8160061c168701518653600186019550603f8116870151865360018601955050611802565b808252891561189d5760038c51066001811461188057600281146118935761189b565b603d6001870353603d600287035361189b565b603d60018703535b505b50505050505080925050505b9392505050565b60008073ffffffffffffffffffffffffffffffffffffffff168373ffffffffffffffffffffffffffffffffffffffff161415801561196857508273ffffffffffffffffffffffffffffffffffffffff168473ffffffffffffffffffffffffffffffffffffffff161480611929575061192884846108bb565b5b8061196757508273ffffffffffffffffffffffffffffffffffffffff1661194f83610ac7565b73ffffffffffffffffffffffffffffffffffffffff16145b5b90509392505050565b600073ffffffffffffffffffffffffffffffffffffffff168273ffffffffffffffffffffffffffffffffffffffff16036119e35760006040517f64a0ae920000000000000000000000000000000000000000000000000000000081526004016119da9190611c8f565b60405180910390fd5b60006119f183836000610b1e565b9050600073ffffffffffffffffffffffffffffffffffffffff168173ffffffffffffffffffffffffffffffffffffffff1614611a655760006040517f73c6ac6e000000000000000000000000000000000000000000000000000000008152600401611a5c9190611c8f565b60405180910390fd5b505050565b6000604051905090565b600080fd5b600080fd5b60007fffffffff0000000000000000000000000000000000000000000000000000000082169050919050565b611ab381611a7e565b8114611abe57600080fd5b50565b600081359050611ad081611aaa565b92915050565b600060208284031215611aec57611aeb611a74565b5b6000611afa84828501611ac1565b91505092915050565b60008115159050919050565b611b1881611b03565b82525050565b6000602082019050611b336000830184611b0f565b92915050565b600081519050919050565b600082825260208201905092915050565b60005b83811015611b73578082015181840152602081019050611b58565b60008484015250505050565b6000601f19601f8301169050919050565b6000611b9b82611b39565b611ba58185611b44565b9350611bb5818560208601611b55565b611bbe81611b7f565b840191505092915050565b60006020820190508181036000830152611be38184611b90565b905092915050565b6000819050919050565b611bfe81611beb565b8114611c0957600080fd5b50565b600081359050611c1b81611bf5565b92915050565b600060208284031215611c3757611c36611a74565b5b6000611c4584828501611c0c565b91505092915050565b600073ffffffffffffffffffffffffffffffffffffffff82169050919050565b6000611c7982611c4e565b9050919050565b611c8981611c6e565b82525050565b6000602082019050611ca46000830184611c80565b92915050565b611cb381611c6e565b8114611cbe57600080fd5b50565b600081359050611cd081611caa565b92915050565b60008060408385031215611ced57611cec611a74565b5b6000611cfb85828601611cc1565b9250506020611d0c85828601611c0c565b9150509250929050565b600080600060608486031215611d2f57611d2e611a74565b5b6000611d3d86828701611cc1565b9350506020611d4e86828701611cc1565b9250506040611d5f86828701611c0c565b9150509250925092565b600060208284031215611d7f57611d7e611a74565b5b6000611d8d84828501611cc1565b91505092915050565b611d9f81611beb565b82525050565b6000602082019050611dba6000830184611d96565b92915050565b611dc981611b03565b8114611dd457600080fd5b50565b600081359050611de681611dc0565b92915050565b60008060408385031215611e0357611e02611a74565b5b6000611e1185828601611cc1565b9250506020611e2285828601611dd7565b9150509250929050565b600080fd5b600080fd5b7f4e487b7100000000000000000000000000000000000000000000000000000000600052604160045260246000fd5b611e6e82611b7f565b810181811067ffffffffffffffff82111715611e8d57611e8c611e36565b5b80604052505050565b6000611ea0611a6a565b9050611eac8282611e65565b919050565b600067ffffffffffffffff821115611ecc57611ecb611e36565b5b611ed582611b7f565b9050602081019050919050565b82818337600083830152505050565b6000611f04611eff84611eb1565b611e96565b905082815260208101848484011115611f2057611f1f611e31565b5b611f2b848285611ee2565b509392505050565b600082601f830112611f4857611f47611e2c565b5b8135611f58848260208601611ef1565b91505092915050565b60008060008060808587031215611f7b57611f7a611a74565b5b6000611f8987828801611cc1565b9450506020611f9a87828801611cc1565b9350506040611fab87828801611c0c565b925050606085013567ffffffffffffffff811115611fcc57611fcb611a79565b5b611fd887828801611f33565b91505092959194509250565b60008060408385031215611ffb57611ffa611a74565b5b600061200985828601611cc1565b925050602061201a85828601611cc1565b9150509250929050565b7f4e487b7100000000000000000000000000000000000000000000000000000000600052602260045260246000fd5b6000600282049050600182168061206b57607f821691505b60208210810361207e5761207d612024565b5b50919050565b60006060820190506120996000830186611c80565b6120a66020830185611d96565b6120b36040830184611c80565b949350505050565b7f4e487b7100000000000000000000000000000000000000000000000000000000600052601160045260246000fd5b60006120f582611beb565b915061210083611beb565b9250828201905080821115612118576121176120bb565b5b92915050565b600081905092915050565b7f7b226e616d65223a202200000000000000000000000000000000000000000000600082015250565b600061215f600a8361211e565b915061216a82612129565b600a82019050919050565b600061218082611b39565b61218a818561211e565b935061219a818560208601611b55565b80840191505092915050565b7f2023000000000000000000000000000000000000000000000000000000000000600082015250565b60006121dc60028361211e565b91506121e7826121a6565b600282019050919050565b7f222c000000000000000000000000000000000000000000000000000000000000600082015250565b600061222860028361211e565b9150612233826121f2565b600282019050919050565b7f226465736372697074696f6e223a20224d59204e4654222c0000000000000000600082015250565b600061227460188361211e565b915061227f8261223e565b601882019050919050565b7f22696d616765223a2022646174613a696d6167652f7376672b786d6c3b62617360008201527f6536342c00000000000000000000000000000000000000000000000000000000602082015250565b60006122e660248361211e565b91506122f18261228a565b602482019050919050565b7f227d000000000000000000000000000000000000000000000000000000000000600082015250565b600061233260028361211e565b915061233d826122fc565b600282019050919050565b600061235382612152565b915061235f8286612175565b915061236a826121cf565b91506123768285612175565b91506123818261221b565b915061238c82612267565b9150612397826122d9565b91506123a38284612175565b91506123ae82612325565b9150819050949350505050565b7f646174613a6170706c69636174696f6e2f6a736f6e3b6261736536342c000000600082015250565b60006123f1601d8361211e565b91506123fc826123bb565b601d82019050919050565b6000612412826123e4565b915061241e8284612175565b915081905092915050565b600081519050919050565b600082825260208201905092915050565b600061245082612429565b61245a8185612434565b935061246a818560208601611b55565b61247381611b7f565b840191505092915050565b60006080820190506124936000830187611c80565b6124a06020830186611c80565b6124ad6040830185611d96565b81810360608301526124bf8184612445565b905095945050505050565b6000815190506124d981611aaa565b92915050565b6000602082840312156124f5576124f4611a74565b5b6000612503848285016124ca565b91505092915050565b7f4e487b7100000000000000000000000000000000000000000000000000000000600052601260045260246000fd5b60006040820190506125506000830185611c80565b61255d6020830184611d96565b9392505050565b600061256f82611beb565b915061257a83611beb565b925082820261258881611beb565b9150828204841483151761259f5761259e6120bb565b5b5092915050565b60006125b182611beb565b91506125bc83611beb565b9250826125cc576125cb61250c565b5b82820490509291505056fe3c7376672077696474683d2732303027206865696768743d273130302720786d6c6e733d27687474703a2f2f7777772e77332e6f72672f323030302f737667273e3c726563742077696474683d273130302527206865696768743d2731303025272066696c6c3d2772656427202f3e3c7465787420783d2731302720793d2733302720666f6e742d66616d696c793d27417269616c2720666f6e742d73697a653d273234272066696c6c3d277768697465273e4f53454e493c2f746578743e3c2f7376673e4142434445464748494a4b4c4d4e4f505152535455565758595a6162636465666768696a6b6c6d6e6f707172737475767778797a303132333435363738392b2fa2646970667358221220f7a3a49336db13cb29631dfa313084edfd86b252a10eb2bef1025013b487da4864736f6c634300081c0033",
  "linkReferences": {},
  "deployedLinkReferences": {}
}